:100000000C945D000C94D9030C94B2030C948500FD
:100010000C9485000C9485000C9485000C9485004C
:100020000C9485000C9485000C9485000C9485003C
:100030000C9485000C9485000C9485000C9485002C
:100040000C9468030C9485000C9426040C94000412
:100050000C9485000C9485000C9485000C9485000C
:100060000C9485000C94850000000008000201003B
:100070000003040700000000000000000000000072
:10008000250028002B0000000000240027002A0083
:10009000040404040404040402020202020203032E
:1000A0000303030301020408102040800102040836
:1000B0001020010204081020EB0511241FBECFEF11
:1000C000D8E0DEBFCDBF11E0A0E0B1E0ECEFF1E1A0
:1000D00002C005900D92AC33B107D9F721E0ACE333
:1000E000B1E001C01D92A93EB207E1F710E0CDE5F5
:1000F000D0E004C02197FE010E94EA06CC35D1076A
:10010000C9F70E9458040C94FC080C9400002FB707
:10011000F8948091440190914501A0914601B091DD
:1001200047012FBF8093500190935101A09352013A
:10013000B0935301E0914801F09149010284F385A5
:10014000E02D88E491E0099597FF26C02FB7F89439
:100150008091440190914501A0914601B0914701E1
:100160002FBF409150015091510160915201709107
:100170005301841B950BA60BB70B40914C0150917A
:100180004D0160914E0170914F0184179507A607AC
:10019000B70780F28FEF9FEF089590E0FC01EC55D8
:1001A000FF4F2491FC01E057FF4F8491882399F081
:1001B00090E0880F991FFC01EA57FF4FA591B49179
:1001C000FC01E458FF4F859194918FB7F894EC911E
:1001D000E22BEC938FBF089590E0FC01E859FF4FAC
:1001E0003491FC01EC55FF4F2491FC01E057FF4F87
:1001F000E491EE2309F43BC0332339F1333091F01D
:1002000038F43130A9F0323001F584B58F7D12C059
:10021000373091F03830A1F03430B9F4809180005B
:100220008F7D03C0809180008F77809380000DC008
:1002300084B58F7784BD09C08091B0008F7703C0EB
:100240008091B0008F7D8093B000F0E0EE0FFF1F33
:10025000E458FF4FA591B4918FB7F894EC916111D8
:1002600003C020952E2301C02E2B2C938FBF089501
:10027000CF93DF93D62F26E0880F991F2A95E1F7B9
:1002800080617F70C82FC72B60E08AE00E94EC007D
:10029000CEBD00000DB407FEFDCF8EB5DEBD000063
:1002A0000DB407FEFDCF8EB561E08AE0DF91CF91FE
:1002B0000C94EC008230910538F0880F991F880F5C
:1002C000991F05970197F1F7089508950895CF9222
:1002D000DF92EF92FF920F931F93CF93DF936C0106
:1002E0007A018B01C0E0D0E0CE15DF0589F0D8019E
:1002F0006D918D01D601ED91FC910190F081E02D81
:10030000C6010995892B11F47E0102C02196ECCF1C
:10031000C701DF91CF911F910F91FF90EF90DF9078
:10032000CF900895089580E090E00895FC01538DEA
:10033000448D252F30E0842F90E0821B930B5417BF
:1003400010F0CF96089501970895FC01918D828D4C
:10035000981761F0828DDF01A80FB11D5D968C9119
:10036000928D9F5F9F73928F90E008958FEF9FEF24
:100370000895FC01918D828D981731F0828DE80FE0
:10038000F11D858D90E008958FEF9FEF0895FC019A
:10039000918D228D892F90E0805C9F4F821B910967
:1003A0008F739927089588E491E00E94C70121E0A6
:1003B000892B09F420E0822F0895FC01848DDF0150
:1003C000A80FB11DA35ABF4F2C91848D90E00196C8
:1003D0008F739927848FA689B7892C93A089B189B7
:1003E0008C9180648C93938D848D981306C00288C1
:1003F000F389E02D80818F7D80830895EF92FF92B5
:100400000F931F93CF93DF93EC0181E0888F9B8D37
:100410008C8D981305C0E889F989808185FD24C0F9
:10042000F62E0B8D10E00F5F1F4F0F731127E02E7C
:100430008C8DE8120CC00FB607FCFACFE889F98959
:10044000808185FFF5CFCE010E94DD01F1CF8B8D3C
:10045000FE01E80FF11DE35AFF4FF0820B8FEA898E
:10046000FB898081806207C0EE89FF896083E8890B
:10047000F98980818064808381E090E0DF91CF9171
:100480001F910F91FF90EF900895CF93DF93EC01B0
:10049000888D8823C9F0EA89FB89808185FD05C0A4
:1004A000A889B9898C9186FD0FC00FB607FCF5CFDE
:1004B000808185FFF2CFA889B9898C9185FFEDCF26
:1004C000CE010E94DD01E7CFDF91CF91089580E05A
:1004D00090E0892B29F00E94D30181110C94000037
:1004E000089560E086E00E94EC0060E087E00E94F2
:1004F000EC0063E178E080E090E00E94380163E185
:1005000078E081E090E00C94380145E150E063E24E
:1005100071E088E491E00E94670142E050E069E305
:1005200071E088E491E00E9467019091000181E010
:1005300089278093000108950F931F93CF93DF9332
:100540008C01EB01FC01808191810097B1F0688101
:1005500079816115710579F0428153812C813D814A
:100560004217530740F00E94F5088C819D81F801E5
:100570009583848313C00E94850788819981F8013F
:10058000918380838A819B81938382838C819D81E7
:1005900095838483198218821B821A821D821C8291
:1005A000DF91CF911F910F9108950E94E708FC0100
:1005B00080819181009711F00C94180660E070E042
:1005C000CB0108950F931F93CF93DF93EC018881A4
:1005D0009981009729F02A813B812617370788F4F3
:1005E0008B016F5F7F4F0E941D08009761F0998318
:1005F00088831B830A832C813D81232B11F4FC010A
:10060000108281E001C080E0DF91CF911F910F91B6
:100610000895EF92FF920F931F93CF93DF9300D033
:10062000CDB7DEB78C01FC011182108213821282D9
:100630001582148260E070E00E94E202F8012081DD
:10064000318181110EC02115310519F0C9010E94B7
:100650008507F8011182108215821482138212829A
:1006600029C0F801158214826BE371E0C9010E9470
:10067000F50820C08E33910509F189831A82F801AB
:10068000E480F580FFEFEF1AFF0AB701C8010E946E
:10069000E202882379F0F8012081318184819581FB
:1006A000BE016F5F7F4F820F931F0E94F508F80114
:1006B000F582E4820E94870097FFDCCFC8010F908B
:1006C0000F90DF91CF911F910F91FF90EF900895C0
:1006D0001F920F920FB60F9211242F933F938F9377
:1006E0009F93AF93BF938091440190914501A09156
:1006F0004601B09147013091430123E0230F2D378C
:1007000020F40196A11DB11D05C026E8230F029615
:10071000A11DB11D20934301809344019093450195
:10072000A0934601B093470180913F019091400111
:10073000A0914101B09142010196A11DB11D80938C
:100740003F0190934001A0934101B0934201BF91BA
:10075000AF919F918F913F912F910F900FBE0F906E
:100760001F9018951F920F920FB60F9211242F937E
:100770003F934F935F936F937F938F939F93AF9329
:10078000BF93EF93FF93E0910901F0910A0109955E
:10079000FF91EF91BF91AF919F918F917F916F9159
:1007A0005F914F913F912F910F900FBE0F901F902F
:1007B00018951F920F920FB60F9211242F933F930B
:1007C0004F935F936F937F938F939F93AF93BF9359
:1007D000EF93FF93E0910701F09108010995FF91D4
:1007E000EF91BF91AF919F918F917F916F915F91A9
:1007F0004F913F912F910F900FBE0F901F90189522
:100800001F920F920FB60F9211242F933F934F9385
:100810005F936F937F938F939F93AF93BF93EF9368
:10082000FF9388E491E00E94DD01FF91EF91BF9179
:10083000AF919F918F917F916F915F914F913F9178
:100840002F910F900FBE0F901F9018951F920F922F
:100850000FB60F9211242F938F939F93EF93FF93D3
:10086000E0915801F09159018081E0915E01F09191
:100870005F0182FD12C09081809161018F5F8F7353
:1008800020916201821751F0E0916101F0E0E85B94
:10089000FE4F958F8093610101C08081FF91EF91A0
:1008A0009F918F912F910F900FBE0F901F901895D1
:1008B000CF93DF93CDB7DEB72C970FB6F894DEBF9A
:1008C0000FBECDBF789484B5826084BD84B581604D
:1008D00084BD85B5826085BD85B5816085BD80910B
:1008E0006E00816080936E00109281008091810083
:1008F000826080938100809181008160809381007B
:10090000809180008160809380008091B10084603C
:100910008093B1008091B00081608093B00080919D
:100920007A00846080937A0080917A00826080935C
:100930007A0080917A00816080937A0080917A00B9
:10094000806880937A001092C100E0915801F09184
:10095000590182E08083E0915401F09155011082A9
:10096000E0915601F0915701108210926001E091E0
:100970005C01F0915D0186E08083E0915A01F09185
:100980005B01808180618083E0915A01F0915B017D
:10099000808188608083E0915A01F0915B018081C1
:1009A00080688083E0915A01F0915B0180818F7DA6
:1009B00080838AE00E94CD0061E08AE00E94EC0022
:1009C00086E00E94CD0087E00E94CD0060E086E0D6
:1009D0000E94EC0060E087E00E94EC001FB7F894F2
:1009E00080913C01811124C0EAE9F0E08491EEEAB3
:1009F000F0E09491E82FF0E0EE0FFF1FEA57FF4F71
:100A0000A591B491EC91E92321F461E08AE00E9480
:100A1000EC008AE00E94CD008CB580618CBD8CB565
:100A200080648CBD8DE00E94CD008BE00E94CD00E3
:100A300080913C018F5F80933C011FBF0E94710237
:100A400084E6882E912CA12CB12CEE24EA9497E018
:100A5000F92E80910001882309F4B8C0A091050106
:100A6000B0910601209103013091040100913D01F4
:100A700010913E010E94DB06A50194010E945406DC
:100A8000B9016150784FC8010E94380184EF91E0AC
:100A90000E945A01A0910101B0910201209103012D
:100AA000309104010E94DB06A50194010E945406C6
:100AB000B701621B730B80913D0190913E010E9432
:100AC000380184EF91E00E945A0169E078E0C801A2
:100AD0000E94380188E39AE40E945A0188E491E078
:100AE0000E94C701892B09F4B4CFCE0107960E945A
:100AF0000903CE0107960E94D70270933E016093CE
:100B00003D01CE0101960E940903BE016F5F7F4F38
:100B1000CE0107960E949C0289819A810E948507D6
:100B2000CE0107960E94D7027093060160930501DB
:100B3000CE0101960E940903BE016F5F7F4FCE0177
:100B400007960E949C0289819A810E948507CE01A6
:100B500007960E94D7027093020160930101CE01B3
:100B600001960E940903BE016F5F7F4FCE01079679
:100B70000E949C0289819A810E948507CE01079676
:100B80000E94D702709304016093030180913D019C
:100B900090913E01009711F461E00CC08130910505
:100BA00031F460E086E00E94EC0061E007C002974B
:100BB00041F460E086E00E94EC0060E087E00E9483
:100BC000EC008F8198850E94850743CF0E947102B7
:100BD0000E9467023ECFE8E4F1E01382128288EEC1
:100BE00093E0A0E0B0E084839583A683B78385E19A
:100BF00091E09183808385EC90E09587848784ECF5
:100C000090E09787868780EC90E0918B808B81ECD9
:100C100090E0938B828B82EC90E0958B848B86ECBA
:100C200090E0978B868B118E128E138E148E089502
:100C30001F93FC0199278827BC01E8941191103279
:100C4000E9F3193010F01E30C8F31B3251F01D3299
:100C500049F4689406C00E943F06610F711D811D12
:100C6000911D119110531A30B0F33EF49095809578
:100C7000709561957F4F8F4F9F4F1F910895592F0A
:100C8000482F372F262F660F771F881F991F660F53
:100C9000771F881F991F620F731F841F951F660F90
:100CA000771F881F991F0895052E97FB1EF4009447
:100CB0000E946B0657FD07D00E94AA0607FC03D0CE
:100CC0004EF40C946B0650954095309521953F4F0E
:100CD0004F4F5F4F089590958095709561957F4F28
:100CE0008F4F9F4F08952F923F924F925F926F9236
:100CF0007F928F929F92AF92BF92CF92DF92EF92AC
:100D0000FF920F931F93CF93DF93CDB7DEB7CA1B2C
:100D1000DB0B0FB6F894DEBF0FBECDBF09942A8857
:100D2000398848885F846E847D848C849B84AA84FF
:100D3000B984C884DF80EE80FD800C811B81AA818C
:100D4000B981CE0FD11D0FB6F894DEBF0FBECDBF57
:100D5000ED010895A1E21A2EAA1BBB1BFD010DC0D7
:100D6000AA1FBB1FEE1FFF1FA217B307E407F5075B
:100D700020F0A21BB30BE40BF50B661F771F881F37
:100D8000991F1A9469F760957095809590959B01CD
:100D9000AC01BD01CF010895A29FB001B39FC00176
:100DA000A39F700D811D1124911DB29F700D811D97
:100DB0001124911D08950E94CC06332312F48A1B3E
:100DC0009B0B0C94E5060E94CC06B7FF0895821B8E
:100DD000930B0895EE0FFF1F0590F491E02D0994F9
:100DE000CF93DF938230910510F482E090E0E091A0
:100DF000E701F091E80120E030E0C0E0D0E030977A
:100E000011F14081518148175907C0F0481759071F
:100E100061F482819381209719F09B838A832BC090
:100E20009093E8018093E70126C02115310519F060
:100E30004217530718F49A01BE01DF01EF01028047
:100E4000F381E02DDCCF2115310509F1281B390B89
:100E50002430310590F412968D919C911397611571
:100E6000710521F0FB019383828304C09093E80114
:100E70008093E701FD01329644C0FD01E20FF31FAC
:100E800081939193225031092D933C933AC0209144
:100E9000E5013091E601232B41F420910D013091C1
:100EA0000E013093E6012093E50120910B01309172
:100EB0000C012115310541F42DB73EB740910F01CA
:100EC00050911001241B350BE091E501F091E601F2
:100ED000E217F307A0F42E1B3F0B2817390778F011
:100EE000AC014E5F5F4F2417350748F04E0F5F1F70
:100EF0005093E6014093E5018193919302C0E0E0B5
:100F0000F0E0CF01DF91CF9108950F931F93CF931E
:100F1000DF93009709F48CC0FC0132971382128290
:100F20000091E7011091E8010115110581F420817C
:100F30003181820F931F2091E5013091E60128173E
:100F4000390779F5F093E601E093E50171C0D80126
:100F500040E050E0AE17BF0750F412962D913C913F
:100F60001397AD012115310509F1D901F3CF9D0189
:100F7000DA013383228360817181860F971F821784
:100F8000930769F4EC0128813981260F371F2E5F02
:100F90003F4F318320838A819B8193838283452BBA
:100FA00029F4F093E801E093E70142C01396FC9323
:100FB000EE931297ED01499159919E01240F351F2F
:100FC000E217F30771F480819181840F951F0296D7
:100FD00011969C938E938281938113969C938E930A
:100FE0001297E0E0F0E0D80112968D919C91139752
:100FF000009719F0F8018C01F6CF8D919C91980122
:101000002E5F3F4F820F931F2091E5013091E60143
:101010002817390769F4309729F41092E8011092E3
:10102000E70102C0138212821093E6010093E501EA
:10103000DF91CF911F910F910895A0E0B0E0E3E21E
:10104000F8E00C947706EC01009721F4CB010E94A4
:10105000F006B8C0FC01E60FF71F9C0122503109D1
:10106000E217F30708F4ACC0D9010D911C91119758
:1010700006171707B0F00530110508F49FC0C80126
:1010800004978617970708F499C002501109061BA8
:10109000170B019311936D937C93CF010E948507E9
:1010A0008DC05B01A01AB10A4C01800E911EA09167
:1010B000E701B091E80140E050E0E12CF12C1097FD
:1010C00009F44AC0A815B905D1F56D907C90119727
:1010D000630182E0C80ED11CCA14DB0480F1A301B5
:1010E0004A195B096A0182E0C80ED11C1296BC90B5
:1010F00012971396AC91B5E0CB16D10440F0B282B2
:10110000A38351834083D9016D937C930AC00E5F02
:101110001F4FC301800F911FF90191838083EB2D35
:10112000FA2FE114F10431F0D7011396FC93EE93FA
:10113000129744C0F093E801E093E7013FC08D911E
:101140009C9111974817590708F4AC017D0112963C
:101150000D90BC91A02DB3CF8091E5019091E60157
:1011600088159905E1F446175707C8F480910B01DB
:1011700090910C01009741F48DB79EB740910F01FB
:1011800050911001841B950BE817F907C8F4F093F0
:10119000E601E093E501F901718360830FC0CB01A3
:1011A0000E94F0067C01009759F0A801BE010E9440
:1011B000EC08CE010E948507C70104C0CE0102C021
:1011C00080E090E0CDB7DEB7EEE00C94930681E0CE
:1011D00090E0F8940C94FC08FB01DC0102C0019043
:1011E0000D9241505040D8F70895FB01DC01019069
:0C11F0000D920020E1F70895F894FFCF65
:1011FC0001FF076400FF07650165010000E901803C
:10120C000000000000FE01670196014502C701A520
:10121C0001B901496E74657272757063696F6E20E5
:0C122C006163746976616461000D0A0062
:00000001FF
